{
  "contractName": "Land",
  "abi": [
    {
      "inputs": [],
      "stateMutability": "nonpayable",
      "type": "constructor"
    },
    {
      "inputs": [
        {
          "internalType": "address",
          "name": "",
          "type": "address"
        }
      ],
      "name": "InspectorMapping",
      "outputs": [
        {
          "internalType": "uint256",
          "name": "id",
          "type": "uint256"
        },
        {
          "internalType": "address",
          "name": "_addr",
          "type": "address"
        },
        {
          "internalType": "string",
          "name": "name",
          "type": "string"
        },
        {
          "internalType": "uint256",
          "name": "age",
          "type": "uint256"
        },
        {
          "internalType": "string",
          "name": "designation",
          "type": "string"
        },
        {
          "internalType": "string",
          "name": "city",
          "type": "string"
        }
      ],
      "stateMutability": "view",
      "type": "function",
      "constant": true
    },
    {
      "inputs": [
        {
          "internalType": "uint256",
          "name": "",
          "type": "uint256"
        }
      ],
      "name": "LandRequestMapping",
      "outputs": [
        {
          "internalType": "uint256",
          "name": "reqId",
          "type": "uint256"
        },
        {
          "internalType": "address payable",
          "name": "sellerId",
          "type": "address"
        },
        {
          "internalType": "address payable",
          "name": "buyerId",
          "type": "address"
        },
        {
          "internalType": "uint256",
          "name": "landId",
          "type": "uint256"
        },
        {
          "internalType": "enum Land.reqStatus",
          "name": "requestStatus",
          "type": "uint8"
        },
        {
          "internalType": "bool",
          "name": "isPaymentDone",
          "type": "bool"
        }
      ],
      "stateMutability": "view",
      "type": "function",
      "constant": true
    },
    {
      "inputs": [
        {
          "internalType": "address",
          "name": "",
          "type": "address"
        }
      ],
      "name": "UserMapping",
      "outputs": [
        {
          "internalType": "address",
          "name": "id",
          "type": "address"
        },
        {
          "internalType": "string",
          "name": "name",
          "type": "string"
        },
        {
          "internalType": "uint256",
          "name": "age",
          "type": "uint256"
        },
        {
          "internalType": "string",
          "name": "city",
          "type": "string"
        },
        {
          "internalType": "string",
          "name": "email",
          "type": "string"
        },
        {
          "internalType": "bool",
          "name": "isUserVerified",
          "type": "bool"
        },
        {
          "internalType": "address payable",
          "name": "prosumerAdd",
          "type": "address"
        }
      ],
      "stateMutability": "view",
      "type": "function",
      "constant": true
    },
    {
      "inputs": [],
      "name": "documentId",
      "outputs": [
        {
          "internalType": "uint256",
          "name": "",
          "type": "uint256"
        }
      ],
      "stateMutability": "view",
      "type": "function",
      "constant": true
    },
    {
      "inputs": [
        {
          "internalType": "uint256",
          "name": "",
          "type": "uint256"
        }
      ],
      "name": "lands",
      "outputs": [
        {
          "internalType": "uint256",
          "name": "id",
          "type": "uint256"
        },
        {
          "internalType": "uint256",
          "name": "area",
          "type": "uint256"
        },
        {
          "internalType": "string",
          "name": "landAddress",
          "type": "string"
        },
        {
          "internalType": "uint256",
          "name": "landPrice",
          "type": "uint256"
        },
        {
          "internalType": "string",
          "name": "allLatitudeLongitude",
          "type": "string"
        },
        {
          "internalType": "string",
          "name": "physicalSurveyNumber",
          "type": "string"
        },
        {
          "internalType": "bool",
          "name": "isforSell",
          "type": "bool"
        },
        {
          "internalType": "address payable",
          "name": "ownerAddress",
          "type": "address"
        },
        {
          "internalType": "bool",
          "name": "isLandVerified",
          "type": "bool"
        }
      ],
      "stateMutability": "view",
      "type": "function",
      "constant": true
    },
    {
      "inputs": [],
      "name": "landsCount",
      "outputs": [
        {
          "internalType": "uint256",
          "name": "",
          "type": "uint256"
        }
      ],
      "stateMutability": "view",
      "type": "function",
      "constant": true
    },
    {
      "inputs": [],
      "name": "userCount",
      "outputs": [
        {
          "internalType": "uint256",
          "name": "",
          "type": "uint256"
        }
      ],
      "stateMutability": "view",
      "type": "function",
      "constant": true
    },
    {
      "inputs": [
        {
          "internalType": "address",
          "name": "_addr",
          "type": "address"
        }
      ],
      "name": "isContractOwner",
      "outputs": [
        {
          "internalType": "bool",
          "name": "",
          "type": "bool"
        }
      ],
      "stateMutability": "view",
      "type": "function",
      "constant": true
    },
    {
      "inputs": [
        {
          "internalType": "address",
          "name": "_addr",
          "type": "address"
        }
      ],
      "name": "changeContractOwner",
      "outputs": [],
      "stateMutability": "nonpayable",
      "type": "function"
    },
    {
      "inputs": [
        {
          "internalType": "address",
          "name": "_addr",
          "type": "address"
        },
        {
          "internalType": "string",
          "name": "_name",
          "type": "string"
        },
        {
          "internalType": "uint256",
          "name": "_age",
          "type": "uint256"
        },
        {
          "internalType": "string",
          "name": "_designation",
          "type": "string"
        },
        {
          "internalType": "string",
          "name": "_city",
          "type": "string"
        }
      ],
      "name": "addLandInspector",
      "outputs": [
        {
          "internalType": "bool",
          "name": "",
          "type": "bool"
        }
      ],
      "stateMutability": "nonpayable",
      "type": "function"
    },
    {
      "inputs": [],
      "name": "ReturnAllLandIncpectorList",
      "outputs": [
        {
          "internalType": "address[]",
          "name": "",
          "type": "address[]"
        }
      ],
      "stateMutability": "view",
      "type": "function",
      "constant": true
    },
    {
      "inputs": [
        {
          "internalType": "address",
          "name": "_addr",
          "type": "address"
        }
      ],
      "name": "removeLandInspector",
      "outputs": [],
      "stateMutability": "nonpayable",
      "type": "function"
    },
    {
      "inputs": [
        {
          "internalType": "address",
          "name": "_id",
          "type": "address"
        }
      ],
      "name": "isLandInspector",
      "outputs": [
        {
          "internalType": "bool",
          "name": "",
          "type": "bool"
        }
      ],
      "stateMutability": "view",
      "type": "function",
      "constant": true
    },
    {
      "inputs": [
        {
          "internalType": "address",
          "name": "_addr",
          "type": "address"
        }
      ],
      "name": "isUserRegistered",
      "outputs": [
        {
          "internalType": "bool",
          "name": "",
          "type": "bool"
        }
      ],
      "stateMutability": "view",
      "type": "function",
      "constant": true
    },
    {
      "inputs": [
        {
          "internalType": "string",
          "name": "_name",
          "type": "string"
        },
        {
          "internalType": "uint256",
          "name": "_age",
          "type": "uint256"
        },
        {
          "internalType": "string",
          "name": "_city",
          "type": "string"
        },
        {
          "internalType": "string",
          "name": "_email",
          "type": "string"
        }
      ],
      "name": "registerUser",
      "outputs": [],
      "stateMutability": "nonpayable",
      "type": "function"
    },
    {
      "inputs": [
        {
          "internalType": "address",
          "name": "_userId",
          "type": "address"
        }
      ],
      "name": "verifyUser",
      "outputs": [],
      "stateMutability": "nonpayable",
      "type": "function"
    },
    {
      "inputs": [
        {
          "internalType": "address",
          "name": "id",
          "type": "address"
        }
      ],
      "name": "isUserVerified",
      "outputs": [
        {
          "internalType": "bool",
          "name": "",
          "type": "bool"
        }
      ],
      "stateMutability": "view",
      "type": "function",
      "constant": true
    },
    {
      "inputs": [],
      "name": "ReturnAllUserList",
      "outputs": [
        {
          "internalType": "address[]",
          "name": "",
          "type": "address[]"
        }
      ],
      "stateMutability": "view",
      "type": "function",
      "constant": true
    },
    {
      "inputs": [
        {
          "internalType": "uint256",
          "name": "energy",
          "type": "uint256"
        },
        {
          "internalType": "string",
          "name": "_address",
          "type": "string"
        },
        {
          "internalType": "uint256",
          "name": "energyPrice",
          "type": "uint256"
        },
        {
          "internalType": "string",
          "name": "_allLatiLongi",
          "type": "string"
        },
        {
          "internalType": "string",
          "name": "name",
          "type": "string"
        }
      ],
      "name": "addLand",
      "outputs": [],
      "stateMutability": "nonpayable",
      "type": "function"
    },
    {
      "inputs": [],
      "name": "ReturnAllLandList",
      "outputs": [
        {
          "internalType": "uint256[]",
          "name": "",
          "type": "uint256[]"
        }
      ],
      "stateMutability": "view",
      "type": "function",
      "constant": true
    },
    {
      "inputs": [
        {
          "internalType": "uint256",
          "name": "_id",
          "type": "uint256"
        }
      ],
      "name": "verifyLand",
      "outputs": [],
      "stateMutability": "nonpayable",
      "type": "function"
    },
    {
      "inputs": [
        {
          "internalType": "uint256",
          "name": "id",
          "type": "uint256"
        }
      ],
      "name": "isLandVerified",
      "outputs": [
        {
          "internalType": "bool",
          "name": "",
          "type": "bool"
        }
      ],
      "stateMutability": "view",
      "type": "function",
      "constant": true
    },
    {
      "inputs": [
        {
          "internalType": "address",
          "name": "id",
          "type": "address"
        }
      ],
      "name": "myAllLands",
      "outputs": [
        {
          "internalType": "uint256[]",
          "name": "",
          "type": "uint256[]"
        }
      ],
      "stateMutability": "view",
      "type": "function",
      "constant": true
    },
    {
      "inputs": [
        {
          "internalType": "uint256",
          "name": "id",
          "type": "uint256"
        }
      ],
      "name": "makeItforSell",
      "outputs": [],
      "stateMutability": "nonpayable",
      "type": "function"
    },
    {
      "inputs": [
        {
          "internalType": "uint256",
          "name": "_landId",
          "type": "uint256"
        }
      ],
      "name": "requestforBuy",
      "outputs": [],
      "stateMutability": "nonpayable",
      "type": "function"
    },
    {
      "inputs": [],
      "name": "myReceivedLandRequests",
      "outputs": [
        {
          "internalType": "uint256[]",
          "name": "",
          "type": "uint256[]"
        }
      ],
      "stateMutability": "view",
      "type": "function",
      "constant": true
    },
    {
      "inputs": [],
      "name": "mySentLandRequests",
      "outputs": [
        {
          "internalType": "uint256[]",
          "name": "",
          "type": "uint256[]"
        }
      ],
      "stateMutability": "view",
      "type": "function",
      "constant": true
    },
    {
      "inputs": [
        {
          "internalType": "uint256",
          "name": "_requestId",
          "type": "uint256"
        }
      ],
      "name": "acceptRequest",
      "outputs": [],
      "stateMutability": "nonpayable",
      "type": "function"
    },
    {
      "inputs": [
        {
          "internalType": "uint256",
          "name": "_requestId",
          "type": "uint256"
        }
      ],
      "name": "rejectRequest",
      "outputs": [],
      "stateMutability": "nonpayable",
      "type": "function"
    },
    {
      "inputs": [
        {
          "internalType": "uint256",
          "name": "id",
          "type": "uint256"
        }
      ],
      "name": "requesteStatus",
      "outputs": [
        {
          "internalType": "bool",
          "name": "",
          "type": "bool"
        }
      ],
      "stateMutability": "view",
      "type": "function",
      "constant": true
    },
    {
      "inputs": [
        {
          "internalType": "uint256",
          "name": "id",
          "type": "uint256"
        }
      ],
      "name": "landPrice",
      "outputs": [
        {
          "internalType": "uint256",
          "name": "",
          "type": "uint256"
        }
      ],
      "stateMutability": "view",
      "type": "function",
      "constant": true
    },
    {
      "inputs": [
        {
          "internalType": "uint256",
          "name": "_requestId",
          "type": "uint256"
        }
      ],
      "name": "makePayment",
      "outputs": [],
      "stateMutability": "payable",
      "type": "function",
      "payable": true
    },
    {
      "inputs": [],
      "name": "returnPaymentDoneList",
      "outputs": [
        {
          "internalType": "uint256[]",
          "name": "",
          "type": "uint256[]"
        }
      ],
      "stateMutability": "view",
      "type": "function",
      "constant": true
    },
    {
      "inputs": [
        {
          "internalType": "address payable",
          "name": "_reveiver",
          "type": "address"
        }
      ],
      "name": "makePaymentTestFun",
      "outputs": [],
      "stateMutability": "payable",
      "type": "function",
      "payable": true
    }
  ],
  "bytecode": "0x608060405234801561001057600080fd5b50336000806101000a81548173ffffffffffffffffffffffffffffffffffffffff021916908373ffffffffffffffffffffffffffffffffffffffff160217905550613dd7806100606000396000f3fe6080604052600436106101f95760003560e01c80639c32e3b41161010d578063d251839b116100a0578063d8513de41161006f578063d8513de414611410578063de11768814611461578063e165af87146114c8578063e261f1e51461152f578063f9c43bdf146116ff576101f9565b8063d251839b1461112e578063d3b368c01461119a578063d61ff68c146111d5578063d72ca9ec146113c1576101f9565b8063b7bb80f9116100dc578063b7bb80f914610c17578063c26e11eb14610e17578063c6dcdc3714610e52578063d196ebf214611088576101f9565b80639c32e3b414610a2d578063a846fc8f14610a99578063ace417e014610b05578063b10a30ed14610b6c576101f9565b80634ba1f0981161019057806364efa0021161015f57806364efa0021461074f5780636cbf6cf81461091c5780637517e00f1461096d57806378f7c83f146109be578063995a8d96146109e9576101f9565b80634ba1f098146106295780634d813120146106645780635114cb52146106b5578063553a998d146106e3576101f9565b80632d7788db116101cc5780632d7788db146103275780633ead67b514610362578063493c80f1146103b3578063499701b2146105bd576101f9565b806307973ccf146101fe578063163f7522146102295780631c9afd0f1461029057806323393d77146102bb575b600080fd5b34801561020a57600080fd5b5061021361173a565b6040518082815260200191505060405180910390f35b34801561023557600080fd5b506102786004803603602081101561024c57600080fd5b81019080803573ffffffffffffffffffffffffffffffffffffffff169060200190929190505050611740565b60405180821515815260200191505060405180910390f35b34801561029c57600080fd5b506102a56117a7565b6040518082815260200191505060405180910390f35b3480156102c757600080fd5b506102d06117ad565b6040518080602001828103825283818151815260200191508051906020019060200280838360005b838110156103135780820151818401526020810190506102f8565b505050509050019250505060405180910390f35b34801561033357600080fd5b506103606004803603602081101561034a57600080fd5b8101908080359060200190929190505050611817565b005b34801561036e57600080fd5b506103b16004803603602081101561038557600080fd5b81019080803573ffffffffffffffffffffffffffffffffffffffff1690602001909291905050506118c0565b005b3480156103bf57600080fd5b506105bb600480360360a08110156103d657600080fd5b8101908080359060200190929190803590602001906401000000008111156103fd57600080fd5b82018360208201111561040f57600080fd5b8035906020019184600183028401116401000000008311171561043157600080fd5b91908080601f016020809104026020016040519081016040528093929190818152602001838380828437600081840152601f19601f820116905080830192505050505050509192919290803590602001909291908035906020019064010000000081111561049e57600080fd5b8201836020820111156104b057600080fd5b803590602001918460018302840111640100000000831117156104d257600080fd5b91908080601f016020809104026020016040519081016040528093929190818152602001838380828437600081840152601f19601f8201169050808301925050505050505091929192908035906020019064010000000081111561053557600080fd5b82018360208201111561054757600080fd5b8035906020019184600183028401116401000000008311171561056957600080fd5b91908080601f016020809104026020016040519081016040528093929190818152602001838380828437600081840152601f19601f8201169050808301925050505050505091929192905050506119c4565b005b3480156105c957600080fd5b506105d2611f54565b6040518080602001828103825283818151815260200191508051906020019060200280838360005b838110156106155780820151818401526020810190506105fa565b505050509050019250505060405180910390f35b34801561063557600080fd5b506106626004803603602081101561064c57600080fd5b8101908080359060200190929190505050611fe9565b005b34801561067057600080fd5b506106b36004803603602081101561068757600080fd5b81019080803573ffffffffffffffffffffffffffffffffffffffff169060200190929190505050612092565b005b6106e1600480360360208110156106cb57600080fd5b8101908080359060200190929190505050612183565b005b3480156106ef57600080fd5b506106f861236e565b6040518080602001828103825283818151815260200191508051906020019060200280838360005b8381101561073b578082015181840152602081019050610720565b505050509050019250505060405180910390f35b34801561075b57600080fd5b5061079e6004803603602081101561077257600080fd5b81019080803573ffffffffffffffffffffffffffffffffffffffff16906020019092919050505061240e565b604051808781526020018673ffffffffffffffffffffffffffffffffffffffff168152602001806020018581526020018060200180602001848103845288818151815260200191508051906020019080838360005b8381101561080e5780820151818401526020810190506107f3565b50505050905090810190601f16801561083b5780820380516001836020036101000a031916815260200191505b50848103835286818151815260200191508051906020019080838360005b83811015610874578082015181840152602081019050610859565b50505050905090810190601f1680156108a15780820380516001836020036101000a031916815260200191505b50848103825285818151815260200191508051906020019080838360005b838110156108da5780820151818401526020810190506108bf565b50505050905090810190601f1680156109075780820380516001836020036101000a031916815260200191505b50995050505050505050505060405180910390f35b34801561092857600080fd5b506109556004803603602081101561093f57600080fd5b8101908080359060200190929190505050612632565b60405180821515815260200191505060405180910390f35b34801561097957600080fd5b506109bc6004803603602081101561099057600080fd5b81019080803573ffffffffffffffffffffffffffffffffffffffff16906020019092919050505061265f565b005b3480156109ca57600080fd5b506109d36129f8565b6040518082815260200191505060405180910390f35b610a2b600480360360208110156109ff57600080fd5b81019080803573ffffffffffffffffffffffffffffffffffffffff1690602001909291905050506129fe565b005b348015610a3957600080fd5b50610a42612a48565b6040518080602001828103825283818151815260200191508051906020019060200280838360005b83811015610a85578082015181840152602081019050610a6a565b505050509050019250505060405180910390f35b348015610aa557600080fd5b50610aae612add565b6040518080602001828103825283818151815260200191508051906020019060200280838360005b83811015610af1578082015181840152602081019050610ad6565b505050509050019250505060405180910390f35b348015610b1157600080fd5b50610b5460048036036020811015610b2857600080fd5b81019080803573ffffffffffffffffffffffffffffffffffffffff169060200190929190505050612b47565b60405180821515815260200191505060405180910390f35b348015610b7857600080fd5b50610ba560048036036020811015610b8f57600080fd5b8101908080359060200190929190505050612ba0565b604051808781526020018673ffffffffffffffffffffffffffffffffffffffff1681526020018573ffffffffffffffffffffffffffffffffffffffff168152602001848152602001836004811115610bf957fe5b81526020018215158152602001965050505050505060405180910390f35b348015610c2357600080fd5b50610e1560048036036080811015610c3a57600080fd5b8101908080359060200190640100000000811115610c5757600080fd5b820183602082011115610c6957600080fd5b80359060200191846001830284011164010000000083111715610c8b57600080fd5b91908080601f016020809104026020016040519081016040528093929190818152602001838380828437600081840152601f19601f8201169050808301925050505050505091929192908035906020019092919080359060200190640100000000811115610cf857600080fd5b820183602082011115610d0a57600080fd5b80359060200191846001830284011164010000000083111715610d2c57600080fd5b91908080601f016020809104026020016040519081016040528093929190818152602001838380828437600081840152601f19601f82011690508083019250505050505050919291929080359060200190640100000000811115610d8f57600080fd5b820183602082011115610da157600080fd5b80359060200191846001830284011164010000000083111715610dc357600080fd5b91908080601f016020809104026020016040519081016040528093929190818152602001838380828437600081840152601f19601f820116905080830192505050505050509192919290505050612c36565b005b348015610e2357600080fd5b50610e5060048036036020811015610e3a57600080fd5b8101908080359060200190929190505050612f79565b005b348015610e5e57600080fd5b50611070600480360360a0811015610e7557600080fd5b81019080803573ffffffffffffffffffffffffffffffffffffffff16906020019092919080359060200190640100000000811115610eb257600080fd5b820183602082011115610ec457600080fd5b80359060200191846001830284011164010000000083111715610ee657600080fd5b91908080601f016020809104026020016040519081016040528093929190818152602001838380828437600081840152601f19601f8201169050808301925050505050505091929192908035906020019092919080359060200190640100000000811115610f5357600080fd5b820183602082011115610f6557600080fd5b80359060200191846001830284011164010000000083111715610f8757600080fd5b91908080601f016020809104026020016040519081016040528093929190818152602001838380828437600081840152601f19601f82011690508083019250505050505050919291929080359060200190640100000000811115610fea57600080fd5b820183602082011115610ffc57600080fd5b8035906020019184600183028401116401000000008311171561101e57600080fd5b91908080601f016020809104026020016040519081016040528093929190818152602001838380828437600081840152601f19601f820116905080830192505050505050509192919290505050613019565b60405180821515815260200191505060405180910390f35b34801561109457600080fd5b506110d7600480360360208110156110ab57600080fd5b81019080803573ffffffffffffffffffffffffffffffffffffffff1690602001909291905050506132e3565b6040518080602001828103825283818151815260200191508051906020019060200280838360005b8381101561111a5780820151818401526020810190506110ff565b505050509050019250505060405180910390f35b34801561113a57600080fd5b5061114361337a565b6040518080602001828103825283818151815260200191508051906020019060200280838360005b8381101561118657808201518184015260208101905061116b565b505050509050019250505060405180910390f35b3480156111a657600080fd5b506111d3600480360360208110156111bd57600080fd5b810190808035906020019092919050505061341a565b005b3480156111e157600080fd5b50611224600480360360208110156111f857600080fd5b81019080803573ffffffffffffffffffffffffffffffffffffffff1690602001909291905050506136fb565b604051808873ffffffffffffffffffffffffffffffffffffffff16815260200180602001878152602001806020018060200186151581526020018573ffffffffffffffffffffffffffffffffffffffff16815260200184810384528a818151815260200191508051906020019080838360005b838110156112b2578082015181840152602081019050611297565b50505050905090810190601f1680156112df5780820380516001836020036101000a031916815260200191505b50848103835288818151815260200191508051906020019080838360005b838110156113185780820151818401526020810190506112fd565b50505050905090810190601f1680156113455780820380516001836020036101000a031916815260200191505b50848103825287818151815260200191508051906020019080838360005b8381101561137e578082015181840152602081019050611363565b50505050905090810190601f1680156113ab5780820380516001836020036101000a031916815260200191505b509a505050505050505050505060405180910390f35b3480156113cd57600080fd5b506113fa600480360360208110156113e457600080fd5b8101908080359060200190929190505050613952565b6040518082815260200191505060405180910390f35b34801561141c57600080fd5b506114496004803603602081101561143357600080fd5b8101908080359060200190929190505050613972565b60405180821515815260200191505060405180910390f35b34801561146d57600080fd5b506114b06004803603602081101561148457600080fd5b81019080803573ffffffffffffffffffffffffffffffffffffffff16906020019092919050505061399f565b60405180821515815260200191505060405180910390f35b3480156114d457600080fd5b50611517600480360360208110156114eb57600080fd5b81019080803573ffffffffffffffffffffffffffffffffffffffff169060200190929190505050613a09565b60405180821515815260200191505060405180910390f35b34801561153b57600080fd5b506115686004803603602081101561155257600080fd5b8101908080359060200190929190505050613a70565b604051808a815260200189815260200180602001888152602001806020018060200187151581526020018673ffffffffffffffffffffffffffffffffffffffff168152602001851515815260200184810384528b818151815260200191508051906020019080838360005b838110156115ee5780820151818401526020810190506115d3565b50505050905090810190601f16801561161b5780820380516001836020036101000a031916815260200191505b50848103835289818151815260200191508051906020019080838360005b83811015611654578082015181840152602081019050611639565b50505050905090810190601f1680156116815780820380516001836020036101000a031916815260200191505b50848103825288818151815260200191508051906020019080838360005b838110156116ba57808201518184015260208101905061169f565b50505050905090810190601f1680156116e75780820380516001836020036101000a031916815260200191505b509c5050505050505050505050505060405180910390f35b34801561170b57600080fd5b506117386004803603602081101561172257600080fd5b8101908080359060200190929190505050613cc0565b005b60025481565b6000600c60008373ffffffffffffffffffffffffffffffffffffffff1673ffffffffffffffffffffffffffffffffffffffff16815260200190815260200160002060009054906101000a900460ff161561179d57600190506117a2565b600090505b919050565b60035481565b6060601260006001815260200190815260200160002080548060200260200160405190810160405280929190818152602001828054801561180d57602002820191906000526020600020905b8154815260200190600101908083116117f9575b5050505050905090565b3373ffffffffffffffffffffffffffffffffffffffff16600f600083815260200190815260200160002060010160009054906101000a900473ffffffffffffffffffffffffffffffffffffffff1673ffffffffffffffffffffffffffffffffffffffff161461188557600080fd5b6002600f600083815260200190815260200160002060040160006101000a81548160ff021916908360048111156118b857fe5b021790555050565b60008054906101000a900473ffffffffffffffffffffffffffffffffffffffff1673ffffffffffffffffffffffffffffffffffffffff163373ffffffffffffffffffffffffffffffffffffffff1614611981576040517f08c379a00000000000000000000000000000000000000000000000000000000081526004018080602001828103825260198152602001807f796f7520617265206e6f7420636f6e74726163744f776e65720000000000000081525060200191505060405180910390fd5b806000806101000a81548173ffffffffffffffffffffffffffffffffffffffff021916908373ffffffffffffffffffffffffffffffffffffffff16021790555050565b6119cd33612b47565b6119d657600080fd5b60036000815480929190600101919050555060405180610120016040528060035481526020018681526020018581526020018481526020018381526020018281526020016001151581526020013373ffffffffffffffffffffffffffffffffffffffff16815260200160001515815250600e6000600354815260200190815260200160002060008201518160000155602082015181600101556040820151816002019080519060200190611a8b929190613d04565b50606082015181600301556080820151816004019080519060200190611ab2929190613d04565b5060a0820151816005019080519060200190611acf929190613d04565b5060c08201518160060160006101000a81548160ff02191690831515021790555060e08201518160060160016101000a81548173ffffffffffffffffffffffffffffffffffffffff021916908373ffffffffffffffffffffffffffffffffffffffff1602179055506101008201518160060160156101000a81548160ff021916908315150217905550905050600d60003373ffffffffffffffffffffffffffffffffffffffff1673ffffffffffffffffffffffffffffffffffffffff1681526020019081526020016000206003549080600181540180825580915050600190039060005260206000200160009091909190915055601260006001815260200190815260200160002060035490806001815401808255809150506001900390600052602060002001600090919091909150556005600081548092919060010191905055506040518060c001604052806005548152602001600960003373ffffffffffffffffffffffffffffffffffffffff1673ffffffffffffffffffffffffffffffffffffffff16815260200190815260200160002060050160019054906101000a900473ffffffffffffffffffffffffffffffffffffffff1673ffffffffffffffffffffffffffffffffffffffff168152602001600e6000600354815260200190815260200160002060060160019054906101000a900473ffffffffffffffffffffffffffffffffffffffff1673ffffffffffffffffffffffffffffffffffffffff168152602001600354815260200160006004811115611d0c57fe5b815260200160001515815250600f600060055481526020019081526020016000206000820151816000015560208201518160010160006101000a81548173ffffffffffffffffffffffffffffffffffffffff021916908373ffffffffffffffffffffffffffffffffffffffff16021790555060408201518160020160006101000a81548173ffffffffffffffffffffffffffffffffffffffff021916908373ffffffffffffffffffffffffffffffffffffffff1602179055506060820151816003015560808201518160040160006101000a81548160ff02191690836004811115611df357fe5b021790555060a08201518160040160016101000a81548160ff02191690831515021790555090505060106000600960003373ffffffffffffffffffffffffffffffffffffffff1673ffffffffffffffffffffffffffffffffffffffff16815260200190815260200160002060050160019054906101000a900473ffffffffffffffffffffffffffffffffffffffff1673ffffffffffffffffffffffffffffffffffffffff1673ffffffffffffffffffffffffffffffffffffffff1681526020019081526020016000206005549080600181540180825580915050600190039060005260206000200160009091909190915055601160003373ffffffffffffffffffffffffffffffffffffffff1673ffffffffffffffffffffffffffffffffffffffff16815260200190815260200160002060055490806001815401808255809150506001900390600052602060002001600090919091909150555050505050565b6060601060003373ffffffffffffffffffffffffffffffffffffffff1673ffffffffffffffffffffffffffffffffffffffff168152602001908152602001600020805480602002602001604051908101604052809291908181526020018280548015611fdf57602002820191906000526020600020905b815481526020019060010190808311611fcb575b5050505050905090565b3373ffffffffffffffffffffffffffffffffffffffff16600f600083815260200190815260200160002060010160009054906101000a900473ffffffffffffffffffffffffffffffffffffffff1673ffffffffffffffffffffffffffffffffffffffff161461205757600080fd5b6001600f600083815260200190815260200160002060040160006101000a81548160ff0219169083600481111561208a57fe5b021790555050565b61209b33613a09565b6120a457600080fd5b6001600960008373ffffffffffffffffffffffffffffffffffffffff1673ffffffffffffffffffffffffffffffffffffffff16815260200190815260200160002060050160006101000a81548160ff02191690831515021790555033600960008373ffffffffffffffffffffffffffffffffffffffff1673ffffffffffffffffffffffffffffffffffffffff16815260200190815260200160002060050160016101000a81548173ffffffffffffffffffffffffffffffffffffffff021916908373ffffffffffffffffffffffffffffffffffffffff16021790555050565b3373ffffffffffffffffffffffffffffffffffffffff16600f600083815260200190815260200160002060020160009054906101000a900473ffffffffffffffffffffffffffffffffffffffff1673ffffffffffffffffffffffffffffffffffffffff1614801561222d5750600160048111156121fc57fe5b600f600083815260200190815260200160002060040160009054906101000a900460ff16600481111561222b57fe5b145b61223657600080fd5b6003600f600083815260200190815260200160002060040160006101000a81548160ff0219169083600481111561226957fe5b0217905550600e6000600f600084815260200190815260200160002060030154815260200190815260200160002060060160019054906101000a900473ffffffffffffffffffffffffffffffffffffffff1673ffffffffffffffffffffffffffffffffffffffff166108fc349081150290604051600060405180830381858888f19350505050158015612300573d6000803e3d6000fd5b506001600f600083815260200190815260200160002060040160016101000a81548160ff021916908315150217905550601360006001815260200190815260200160002081908060018154018082558091505060019003906000526020600020016000909190919091505550565b6060600b60006001815260200190815260200160002080548060200260200160405190810160405280929190818152602001828054801561240457602002820191906000526020600020905b8160009054906101000a900473ffffffffffffffffffffffffffffffffffffffff1673ffffffffffffffffffffffffffffffffffffffff16815260200190600101908083116123ba575b5050505050905090565b60066020528060005260406000206000915090508060000154908060010160009054906101000a900473ffffffffffffffffffffffffffffffffffffffff1690806002018054600181600116156101000203166002900480601f0160208091040260200160405190810160405280929190818152602001828054600181600116156101000203166002900480156124e65780601f106124bb576101008083540402835291602001916124e6565b820191906000526020600020905b8154815290600101906020018083116124c957829003601f168201915b505050505090806003015490806004018054600181600116156101000203166002900480601f01602080910402602001604051908101604052809291908181526020018280546001816001161561010002031660029004801561258a5780601f1061255f5761010080835404028352916020019161258a565b820191906000526020600020905b81548152906001019060200180831161256d57829003601f168201915b505050505090806005018054600181600116156101000203166002900480601f0160208091040260200160405190810160405280929190818152602001828054600181600116156101000203166002900480156126285780601f106125fd57610100808354040283529160200191612628565b820191906000526020600020905b81548152906001019060200180831161260b57829003601f168201915b5050505050905086565b6000600e600083815260200190815260200160002060060160159054906101000a900460ff169050919050565b60008054906101000a900473ffffffffffffffffffffffffffffffffffffffff1673ffffffffffffffffffffffffffffffffffffffff163373ffffffffffffffffffffffffffffffffffffffff1614612720576040517f08c379a00000000000000000000000000000000000000000000000000000000081526004018080602001828103825260198152602001807f596f7520617265206e6f7420636f6e74726163744f776e65720000000000000081525060200191505060405180910390fd5b600860008273ffffffffffffffffffffffffffffffffffffffff1673ffffffffffffffffffffffffffffffffffffffff16815260200190815260200160002060009054906101000a900460ff166127df576040517f08c379a00000000000000000000000000000000000000000000000000000000081526004018080602001828103825260188152602001807f4c616e6420496e73706563746f72206e6f7420666f756e64000000000000000081525060200191505060405180910390fd5b6000600860008373ffffffffffffffffffffffffffffffffffffffff1673ffffffffffffffffffffffffffffffffffffffff16815260200190815260200160002060006101000a81548160ff0219169083151502179055506000600760006001815260200190815260200160002080549050905060005b818110156129f3578273ffffffffffffffffffffffffffffffffffffffff166007600060018152602001908152602001600020828154811061289457fe5b9060005260206000200160009054906101000a900473ffffffffffffffffffffffffffffffffffffffff1673ffffffffffffffffffffffffffffffffffffffff1614156129e657600760006001815260200190815260200160002060018303815481106128fd57fe5b9060005260206000200160009054906101000a900473ffffffffffffffffffffffffffffffffffffffff166007600060018152602001908152602001600020828154811061294757fe5b9060005260206000200160006101000a81548173ffffffffffffffffffffffffffffffffffffffff021916908373ffffffffffffffffffffffffffffffffffffffff16021790555060076000600181526020019081526020016000208054806129ac57fe5b6001900381819060005260206000200160006101000a81549073ffffffffffffffffffffffffffffffffffffffff021916905590556129f3565b8080600101915050612856565b505050565b60045481565b8073ffffffffffffffffffffffffffffffffffffffff166108fc349081150290604051600060405180830381858888f19350505050158015612a44573d6000803e3d6000fd5b5050565b6060601160003373ffffffffffffffffffffffffffffffffffffffff1673ffffffffffffffffffffffffffffffffffffffff168152602001908152602001600020805480602002602001604051908101604052809291908181526020018280548015612ad357602002820191906000526020600020905b815481526020019060010190808311612abf575b5050505050905090565b60606013600060018152602001908152602001600020805480602002602001604051908101604052809291908181526020018280548015612b3d57602002820191906000526020600020905b815481526020019060010190808311612b29575b5050505050905090565b6000600960008373ffffffffffffffffffffffffffffffffffffffff1673ffffffffffffffffffffffffffffffffffffffff16815260200190815260200160002060050160009054906101000a900460ff169050919050565b600f6020528060005260406000206000915090508060000154908060010160009054906101000a900473ffffffffffffffffffffffffffffffffffffffff16908060020160009054906101000a900473ffffffffffffffffffffffffffffffffffffffff16908060030154908060040160009054906101000a900460ff16908060040160019054906101000a900460ff16905086565b600c60003373ffffffffffffffffffffffffffffffffffffffff1673ffffffffffffffffffffffffffffffffffffffff16815260200190815260200160002060009054906101000a900460ff1615612c8d57600080fd5b6001600c60003373ffffffffffffffffffffffffffffffffffffffff1673ffffffffffffffffffffffffffffffffffffffff16815260200190815260200160002060006101000a81548160ff021916908315150217905550600260008154809291906001019190505550600b600060018152602001908152602001600020339080600181540180825580915050600190039060005260206000200160009091909190916101000a81548173ffffffffffffffffffffffffffffffffffffffff021916908373ffffffffffffffffffffffffffffffffffffffff16021790555033600a6000600254815260200190815260200160002060006101000a81548173ffffffffffffffffffffffffffffffffffffffff021916908373ffffffffffffffffffffffffffffffffffffffff1602179055506040518060e001604052803373ffffffffffffffffffffffffffffffffffffffff1681526020018581526020018481526020018381526020018281526020016000151581526020013373ffffffffffffffffffffffffffffffffffffffff16815250600960003373ffffffffffffffffffffffffffffffffffffffff1673ffffffffffffffffffffffffffffffffffffffff16815260200190815260200160002060008201518160000160006101000a81548173ffffffffffffffffffffffffffffffffffffffff021916908373ffffffffffffffffffffffffffffffffffffffff1602179055506020820151816001019080519060200190612ec4929190613d04565b50604082015181600201556060820151816003019080519060200190612eeb929190613d04565b506080820151816004019080519060200190612f08929190613d04565b5060a08201518160050160006101000a81548160ff02191690831515021790555060c08201518160050160016101000a81548173ffffffffffffffffffffffffffffffffffffffff021916908373ffffffffffffffffffffffffffffffffffffffff16021790555090505050505050565b3373ffffffffffffffffffffffffffffffffffffffff16600e600083815260200190815260200160002060060160019054906101000a900473ffffffffffffffffffffffffffffffffffffffff1673ffffffffffffffffffffffffffffffffffffffff1614612fe757600080fd5b6001600e600083815260200190815260200160002060060160006101000a81548160ff02191690831515021790555050565b60003373ffffffffffffffffffffffffffffffffffffffff1660008054906101000a900473ffffffffffffffffffffffffffffffffffffffff1673ffffffffffffffffffffffffffffffffffffffff161461307757600090506132da565b3373ffffffffffffffffffffffffffffffffffffffff1660008054906101000a900473ffffffffffffffffffffffffffffffffffffffff1673ffffffffffffffffffffffffffffffffffffffff16146130cf57600080fd5b6001600860008873ffffffffffffffffffffffffffffffffffffffff1673ffffffffffffffffffffffffffffffffffffffff16815260200190815260200160002060006101000a81548160ff0219169083151502179055506007600060018152602001908152602001600020869080600181540180825580915050600190039060005260206000200160009091909190916101000a81548173ffffffffffffffffffffffffffffffffffffffff021916908373ffffffffffffffffffffffffffffffffffffffff1602179055506040518060c0016040528060015481526020018773ffffffffffffffffffffffffffffffffffffffff16815260200186815260200185815260200184815260200183815250600660008873ffffffffffffffffffffffffffffffffffffffff1673ffffffffffffffffffffffffffffffffffffffff1681526020019081526020016000206000820151816000015560208201518160010160006101000a81548173ffffffffffffffffffffffffffffffffffffffff021916908373ffffffffffffffffffffffffffffffffffffffff160217905550604082015181600201908051906020019061328d929190613d04565b506060820151816003015560808201518160040190805190602001906132b4929190613d04565b5060a08201518160050190805190602001906132d1929190613d04565b50905050600190505b95945050505050565b6060600d60008373ffffffffffffffffffffffffffffffffffffffff1673ffffffffffffffffffffffffffffffffffffffff16815260200190815260200160002080548060200260200160405190810160405280929190818152602001828054801561336e57602002820191906000526020600020905b81548152602001906001019080831161335a575b50505050509050919050565b6060600760006001815260200190815260200160002080548060200260200160405190810160405280929190818152602001828054801561341057602002820191906000526020600020905b8160009054906101000a900473ffffffffffffffffffffffffffffffffffffffff1673ffffffffffffffffffffffffffffffffffffffff16815260200190600101908083116133c6575b5050505050905090565b61342333612b47565b8015613434575061343381612632565b5b61343d57600080fd5b6005600081548092919060010191905055506040518060c001604052806005548152602001600e600084815260200190815260200160002060060160019054906101000a900473ffffffffffffffffffffffffffffffffffffffff1673ffffffffffffffffffffffffffffffffffffffff1681526020013373ffffffffffffffffffffffffffffffffffffffff168152602001828152602001600060048111156134e357fe5b815260200160001515815250600f600060055481526020019081526020016000206000820151816000015560208201518160010160006101000a81548173ffffffffffffffffffffffffffffffffffffffff021916908373ffffffffffffffffffffffffffffffffffffffff16021790555060408201518160020160006101000a81548173ffffffffffffffffffffffffffffffffffffffff021916908373ffffffffffffffffffffffffffffffffffffffff1602179055506060820151816003015560808201518160040160006101000a81548160ff021916908360048111156135ca57fe5b021790555060a08201518160040160016101000a81548160ff02191690831515021790555090505060106000600e600084815260200190815260200160002060060160019054906101000a900473ffffffffffffffffffffffffffffffffffffffff1673ffffffffffffffffffffffffffffffffffffffff1673ffffffffffffffffffffffffffffffffffffffff1681526020019081526020016000206005549080600181540180825580915050600190039060005260206000200160009091909190915055601160003373ffffffffffffffffffffffffffffffffffffffff1673ffffffffffffffffffffffffffffffffffffffff168152602001908152602001600020600554908060018154018082558091505060019003906000526020600020016000909190919091505550565b60096020528060005260406000206000915090508060000160009054906101000a900473ffffffffffffffffffffffffffffffffffffffff1690806001018054600181600116156101000203166002900480601f0160208091040260200160405190810160405280929190818152602001828054600181600116156101000203166002900480156137cd5780601f106137a2576101008083540402835291602001916137cd565b820191906000526020600020905b8154815290600101906020018083116137b057829003601f168201915b505050505090806002015490806003018054600181600116156101000203166002900480601f0160208091040260200160405190810160405280929190818152602001828054600181600116156101000203166002900480156138715780601f1061384657610100808354040283529160200191613871565b820191906000526020600020905b81548152906001019060200180831161385457829003601f168201915b505050505090806004018054600181600116156101000203166002900480601f01602080910402602001604051908101604052809291908181526020018280546001816001161561010002031660029004801561390f5780601f106138e45761010080835404028352916020019161390f565b820191906000526020600020905b8154815290600101906020018083116138f257829003601f168201915b5050505050908060050160009054906101000a900460ff16908060050160019054906101000a900473ffffffffffffffffffffffffffffffffffffffff16905087565b6000600e6000838152602001908152602001600020600301549050919050565b6000600f600083815260200190815260200160002060040160019054906101000a900460ff169050919050565b60008060009054906101000a900473ffffffffffffffffffffffffffffffffffffffff1673ffffffffffffffffffffffffffffffffffffffff168273ffffffffffffffffffffffffffffffffffffffff1614156139ff5760019050613a04565b600090505b919050565b6000600860008373ffffffffffffffffffffffffffffffffffffffff1673ffffffffffffffffffffffffffffffffffffffff16815260200190815260200160002060009054906101000a900460ff1615613a665760019050613a6b565b600090505b919050565b600e602052806000526040600020600091509050806000015490806001015490806002018054600181600116156101000203166002900480601f016020809104026020016040519081016040528092919081815260200182805460018160011615610100020316600290048015613b285780601f10613afd57610100808354040283529160200191613b28565b820191906000526020600020905b815481529060010190602001808311613b0b57829003601f168201915b505050505090806003015490806004018054600181600116156101000203166002900480601f016020809104026020016040519081016040528092919081815260200182805460018160011615610100020316600290048015613bcc5780601f10613ba157610100808354040283529160200191613bcc565b820191906000526020600020905b815481529060010190602001808311613baf57829003601f168201915b505050505090806005018054600181600116156101000203166002900480601f016020809104026020016040519081016040528092919081815260200182805460018160011615610100020316600290048015613c6a5780601f10613c3f57610100808354040283529160200191613c6a565b820191906000526020600020905b815481529060010190602001808311613c4d57829003601f168201915b5050505050908060060160009054906101000a900460ff16908060060160019054906101000a900473ffffffffffffffffffffffffffffffffffffffff16908060060160159054906101000a900460ff16905089565b613cc933613a09565b613cd257600080fd5b6001600e600083815260200190815260200160002060060160156101000a81548160ff02191690831515021790555050565b828054600181600116156101000203166002900490600052602060002090601f016020900481019282601f10613d4557805160ff1916838001178555613d73565b82800160010185558215613d73579182015b82811115613d72578251825591602001919060010190613d57565b5b509050613d809190613d84565b5090565b5b80821115613d9d576000816000905550600101613d85565b509056fea2646970667358221220bf243a33e3bcdb4529aa85029e4d97d797bde2c7f3792a640709eb978fcffc7c64736f6c634300060c0033",
  "immutableReferences": {},
  "source": "// SPDX-License-Identifier: MIT\npragma solidity ^0.6.0;\n\ncontract Land {\n    address contractOwner;\n\n    constructor() public{\n        contractOwner = msg.sender;\n    }\n\n    struct Landreg {\n        uint id;\n        uint area;\n        string landAddress;\n        uint landPrice;\n        string allLatitudeLongitude;\n        //string allLongitude;\n        string physicalSurveyNumber;\n        bool isforSell;\n        address payable ownerAddress;\n        bool isLandVerified;\n    }\n\n    struct User{\n        address id;\n        string name;\n        uint age;\n        string city;\n        string email;\n        bool isUserVerified;\n        address payable prosumerAdd;\n    }\n\n    struct LandInspector {\n        uint id;\n        address _addr;\n        string name;\n        uint age;\n        string designation;\n        string city;\n    }\n\n    struct LandRequest{\n        uint reqId;\n        address payable sellerId;\n        address payable buyerId;\n        uint landId;\n        reqStatus requestStatus;\n        bool isPaymentDone;\n    }\n    enum reqStatus {requested,accepted,rejected,paymentdone,commpleted}\n\n\n    uint inspectorsCount;\n    uint public userCount;\n    uint public landsCount;\n    uint public documentId;\n    uint requestCount;\n\n\n    mapping(address => LandInspector) public InspectorMapping;\n    mapping(uint => address[]) allLandInspectorList;\n    mapping(address => bool)  RegisteredInspectorMapping;\n    mapping(address => User) public UserMapping;\n    mapping(uint => address)  AllUsers;\n    mapping(uint => address[])  allUsersList;\n    mapping(address => bool)  RegisteredUserMapping;\n    mapping(address => uint[])  MyLands;\n    mapping(uint => Landreg) public lands;\n    mapping(uint => LandRequest) public LandRequestMapping;\n    mapping(address => uint[])  MyReceivedLandRequest;\n    mapping(address => uint[])  MySentLandRequest;\n    mapping(uint => uint[])  allLandList;\n    mapping(uint => uint[])  paymentDoneList;\n\n\n    function isContractOwner(address _addr) public view returns(bool){\n        if(_addr==contractOwner)\n            return true;\n        else\n            return false;\n    }\n\n    function changeContractOwner(address _addr)public {\n        require(msg.sender==contractOwner,\"you are not contractOwner\");\n\n        contractOwner=_addr;\n    }\n\n    //-----------------------------------------------LandInspector-----------------------------------------------\n\n    function addLandInspector(address _addr,string memory _name, uint _age, string memory _designation,string memory _city) public returns(bool){\n        if(contractOwner!=msg.sender)\n            return false;\n        require(contractOwner==msg.sender);\n        RegisteredInspectorMapping[_addr]=true;\n        allLandInspectorList[1].push(_addr);\n        InspectorMapping[_addr] = LandInspector(inspectorsCount,_addr,_name, _age, _designation,_city);\n        return true;\n    }\n\n    function ReturnAllLandIncpectorList() public view returns(address[] memory)\n    {\n        return allLandInspectorList[1];\n    }\n\n    function removeLandInspector(address _addr) public{\n        require(msg.sender==contractOwner,\"You are not contractOwner\");\n        require(RegisteredInspectorMapping[_addr],\"Land Inspector not found\");\n        RegisteredInspectorMapping[_addr]=false;\n\n\n        uint len=allLandInspectorList[1].length;\n        for(uint i=0;i<len;i++)\n        {\n            if(allLandInspectorList[1][i]==_addr)\n            {\n                allLandInspectorList[1][i]=allLandInspectorList[1][len-1];\n                allLandInspectorList[1].pop();\n                break;\n            }\n        }\n    }\n\n    function isLandInspector(address _id) public view returns (bool) {\n        if(RegisteredInspectorMapping[_id]){\n            return true;\n        }else{\n            return false;\n        }\n    }\n\n    \n\n\n\n    //-----------------------------------------------User-----------------------------------------------\n\n    function isUserRegistered(address _addr) public view returns(bool)\n    {\n        if(RegisteredUserMapping[_addr]){\n            return true;\n        }else{\n            return false;\n        }\n    }\n\n    function registerUser(string memory _name, uint _age, string memory _city, string memory _email\n    ) public {\n\n        require(!RegisteredUserMapping[msg.sender]);\n\n        RegisteredUserMapping[msg.sender] = true;\n        userCount++;\n        allUsersList[1].push(msg.sender);\n        AllUsers[userCount]=msg.sender;\n        UserMapping[msg.sender] = User(msg.sender, _name, _age, _city,_email, false,msg.sender);\n        //emit Registration(msg.sender);\n    }\n\n    function verifyUser(address _userId) public{\n        require(isLandInspector(msg.sender));\n        UserMapping[_userId].isUserVerified=true;\n        UserMapping[_userId].prosumerAdd=msg.sender;\n    }\n    function isUserVerified(address id) public view returns(bool){\n        return UserMapping[id].isUserVerified;\n    }\n    function ReturnAllUserList() public view returns(address[] memory)\n    {\n        return allUsersList[1];\n    }\n\n    //-----------------------------------------------Land-----------------------------------------------\n\n    function addLand(uint energy, string memory _address, uint energyPrice,string memory _allLatiLongi, string memory name) public {\n        require(isUserVerified(msg.sender));\n        landsCount++;\n        lands[landsCount] = Landreg(landsCount, energy, _address, energyPrice,_allLatiLongi, name,true,msg.sender,false);\n        MyLands[msg.sender].push(landsCount);\n        allLandList[1].push(landsCount);\n\n        // //verify\n        // require(isLandInspector(msg.sender));\n        //lands[landsCount].isLandVerified=true;\n\n        // //make for sell\n        // require(lands[id].ownerAddress==msg.sender);\n        //lands[landsCount].isforSell=true;\n\n        //make for buy\n        requestCount++;\n        LandRequestMapping[requestCount]=LandRequest(requestCount,UserMapping[msg.sender].prosumerAdd,lands[landsCount].ownerAddress,landsCount,reqStatus.requested,false);\n        MyReceivedLandRequest[UserMapping[msg.sender].prosumerAdd].push(requestCount);\n        MySentLandRequest[msg.sender].push(requestCount);\n\n        // //approve\n        // LandRequestMapping[_requestId].requestStatus=reqStatus.accepted;\n\n        // //reject\n        // LandRequestMapping[_requestId].requestStatus=reqStatus.rejected;\n    }\n\n    function ReturnAllLandList() public view returns(uint[] memory)\n    {\n        return allLandList[1];\n    }\n\n    function verifyLand(uint _id) public{\n        require(isLandInspector(msg.sender));\n        lands[_id].isLandVerified=true;\n    }\n    function isLandVerified(uint id) public view returns(bool){\n        return lands[id].isLandVerified;\n    }\n\n    function myAllLands(address id) public view returns( uint[] memory){\n        return MyLands[id];\n    }\n\n\n    function makeItforSell(uint id) public{\n        require(lands[id].ownerAddress==msg.sender);\n        lands[id].isforSell=true;\n    }\n\n    function requestforBuy(uint _landId) public\n    {\n        require(isUserVerified(msg.sender) && isLandVerified(_landId));\n        requestCount++;\n        LandRequestMapping[requestCount]=LandRequest(requestCount,lands[_landId].ownerAddress,msg.sender,_landId,reqStatus.requested,false);\n        MyReceivedLandRequest[lands[_landId].ownerAddress].push(requestCount);\n        MySentLandRequest[msg.sender].push(requestCount);\n    }\n\n    function myReceivedLandRequests() public view returns(uint[] memory)\n    {\n        return MyReceivedLandRequest[msg.sender];\n    }\n    function mySentLandRequests() public view returns(uint[] memory)\n    {\n        return MySentLandRequest[msg.sender];\n    }\n    function acceptRequest(uint _requestId) public\n    {\n        require(LandRequestMapping[_requestId].sellerId==msg.sender);\n        LandRequestMapping[_requestId].requestStatus=reqStatus.accepted;\n    }\n    function rejectRequest(uint _requestId) public\n    {\n        require(LandRequestMapping[_requestId].sellerId==msg.sender);\n        LandRequestMapping[_requestId].requestStatus=reqStatus.rejected;\n    }\n\n    function requesteStatus(uint id) public view returns(bool)\n    {\n        return LandRequestMapping[id].isPaymentDone;\n    }\n\n    function landPrice(uint id) public view returns(uint)\n    {\n        return lands[id].landPrice;\n    }\n    function makePayment(uint _requestId) public payable\n    {\n        require(LandRequestMapping[_requestId].buyerId==msg.sender && LandRequestMapping[_requestId].requestStatus==reqStatus.accepted);\n\n        LandRequestMapping[_requestId].requestStatus=reqStatus.paymentdone;\n        //LandRequestMapping[_requestId].sellerId.transfer(lands[LandRequestMapping[_requestId].landId].landPrice);\n        //lands[LandRequestMapping[_requestId].landId].ownerAddress.transfer(lands[LandRequestMapping[_requestId].landId].landPrice);\n        lands[LandRequestMapping[_requestId].landId].ownerAddress.transfer(msg.value);\n        LandRequestMapping[_requestId].isPaymentDone=true;\n        paymentDoneList[1].push(_requestId);\n    }\n\n    function returnPaymentDoneList() public view returns(uint[] memory)\n    {\n        return paymentDoneList[1];\n    }\n\n    function makePaymentTestFun(address payable _reveiver) public payable\n    {\n        _reveiver.transfer(msg.value);\n    }\n}",
  "sourcePath": "C:\\Users\\Ananya\\Desktop\\EnergyTrading-master\\contracts\\landContrat.sol",
  "compiler": {
    "name": "solc",
    "version": "0.6.12+commit.27d51765.Emscripten.clang"
  },
  "schemaVersion": "3.4.13",
  "updatedAt": "2023-04-20T20:19:18.394Z",
  "networkType": "ethereum",
  "devdoc": {
    "kind": "dev",
    "methods": {},
    "version": 1
  },
  "userdoc": {
    "kind": "user",
    "methods": {},
    "version": 1
  }
}